{
  "_format": "hh-sol-artifact-1",
  "contractName": "AttendancePOAP",
  "sourceName": "contracts/AttendancePOAP.sol",
  "abi": [
    {
      "inputs": [
        {
          "internalType": "string",
          "name": "name_",
          "type": "string"
        },
        {
          "internalType": "string",
          "name": "symbol_",
          "type": "string"
        },
        {
          "internalType": "string",
          "name": "baseTokenURI_",
          "type": "string"
        },
        {
          "internalType": "address",
          "name": "initialEventSigner",
          "type": "address"
        },
        {
          "internalType": "address",
          "name": "initialOwner",
          "type": "address"
        }
      ],
      "stateMutability": "nonpayable",
      "type": "constructor"
    },
    {
      "inputs": [],
      "name": "ECDSAInvalidSignature",
      "type": "error"
    },
    {
      "inputs": [
        {
          "internalType": "uint256",
          "name": "length",
          "type": "uint256"
        }
      ],
      "name": "ECDSAInvalidSignatureLength",
      "type": "error"
    },
    {
      "inputs": [
        {
          "internalType": "bytes32",
          "name": "s",
          "type": "bytes32"
        }
      ],
      "name": "ECDSAInvalidSignatureS",
      "type": "error"
    },
    {
      "inputs": [
        {
          "internalType": "address",
          "name": "sender",
          "type": "address"
        },
        {
          "internalType": "uint256",
          "name": "tokenId",
          "type": "uint256"
        },
        {
          "internalType": "address",
          "name": "owner",
          "type": "address"
        }
      ],
      "name": "ERC721IncorrectOwner",
      "type": "error"
    },
    {
      "inputs": [
        {
          "internalType": "address",
          "name": "operator",
          "type": "address"
        },
        {
          "internalType": "uint256",
          "name": "tokenId",
          "type": "uint256"
        }
      ],
      "name": "ERC721InsufficientApproval",
      "type": "error"
    },
    {
      "inputs": [
        {
          "internalType": "address",
          "name": "approver",
          "type": "address"
        }
      ],
      "name": "ERC721InvalidApprover",
      "type": "error"
    },
    {
      "inputs": [
        {
          "internalType": "address",
          "name": "operator",
          "type": "address"
        }
      ],
      "name": "ERC721InvalidOperator",
      "type": "error"
    },
    {
      "inputs": [
        {
          "internalType": "address",
          "name": "owner",
          "type": "address"
        }
      ],
      "name": "ERC721InvalidOwner",
      "type": "error"
    },
    {
      "inputs": [
        {
          "internalType": "address",
          "name": "receiver",
          "type": "address"
        }
      ],
      "name": "ERC721InvalidReceiver",
      "type": "error"
    },
    {
      "inputs": [
        {
          "internalType": "address",
          "name": "sender",
          "type": "address"
        }
      ],
      "name": "ERC721InvalidSender",
      "type": "error"
    },
    {
      "inputs": [
        {
          "internalType": "uint256",
          "name": "tokenId",
          "type": "uint256"
        }
      ],
      "name": "ERC721NonexistentToken",
      "type": "error"
    },
    {
      "inputs": [
        {
          "internalType": "address",
          "name": "owner",
          "type": "address"
        }
      ],
      "name": "OwnableInvalidOwner",
      "type": "error"
    },
    {
      "inputs": [
        {
          "internalType": "address",
          "name": "account",
          "type": "address"
        }
      ],
      "name": "OwnableUnauthorizedAccount",
      "type": "error"
    },
    {
      "anonymous": false,
      "inputs": [
        {
          "indexed": true,
          "internalType": "address",
          "name": "owner",
          "type": "address"
        },
        {
          "indexed": true,
          "internalType": "address",
          "name": "approved",
          "type": "address"
        },
        {
          "indexed": true,
          "internalType": "uint256",
          "name": "tokenId",
          "type": "uint256"
        }
      ],
      "name": "Approval",
      "type": "event"
    },
    {
      "anonymous": false,
      "inputs": [
        {
          "indexed": true,
          "internalType": "address",
          "name": "owner",
          "type": "address"
        },
        {
          "indexed": true,
          "internalType": "address",
          "name": "operator",
          "type": "address"
        },
        {
          "indexed": false,
          "internalType": "bool",
          "name": "approved",
          "type": "bool"
        }
      ],
      "name": "ApprovalForAll",
      "type": "event"
    },
    {
      "anonymous": false,
      "inputs": [
        {
          "indexed": true,
          "internalType": "address",
          "name": "attendee",
          "type": "address"
        },
        {
          "indexed": true,
          "internalType": "uint256",
          "name": "tokenId",
          "type": "uint256"
        }
      ],
      "name": "AttendanceMinted",
      "type": "event"
    },
    {
      "anonymous": false,
      "inputs": [
        {
          "indexed": true,
          "internalType": "address",
          "name": "oldSigner",
          "type": "address"
        },
        {
          "indexed": true,
          "internalType": "address",
          "name": "newSigner",
          "type": "address"
        }
      ],
      "name": "EventSignerUpdated",
      "type": "event"
    },
    {
      "anonymous": false,
      "inputs": [
        {
          "indexed": true,
          "internalType": "address",
          "name": "previousOwner",
          "type": "address"
        },
        {
          "indexed": true,
          "internalType": "address",
          "name": "newOwner",
          "type": "address"
        }
      ],
      "name": "OwnershipTransferred",
      "type": "event"
    },
    {
      "anonymous": false,
      "inputs": [
        {
          "indexed": true,
          "internalType": "address",
          "name": "from",
          "type": "address"
        },
        {
          "indexed": true,
          "internalType": "address",
          "name": "to",
          "type": "address"
        },
        {
          "indexed": true,
          "internalType": "uint256",
          "name": "tokenId",
          "type": "uint256"
        }
      ],
      "name": "Transfer",
      "type": "event"
    },
    {
      "inputs": [
        {
          "internalType": "address",
          "name": "to",
          "type": "address"
        },
        {
          "internalType": "uint256",
          "name": "tokenId",
          "type": "uint256"
        }
      ],
      "name": "approve",
      "outputs": [],
      "stateMutability": "nonpayable",
      "type": "function"
    },
    {
      "inputs": [
        {
          "internalType": "address",
          "name": "owner",
          "type": "address"
        }
      ],
      "name": "balanceOf",
      "outputs": [
        {
          "internalType": "uint256",
          "name": "",
          "type": "uint256"
        }
      ],
      "stateMutability": "view",
      "type": "function"
    },
    {
      "inputs": [],
      "name": "eventSigner",
      "outputs": [
        {
          "internalType": "address",
          "name": "",
          "type": "address"
        }
      ],
      "stateMutability": "view",
      "type": "function"
    },
    {
      "inputs": [
        {
          "internalType": "uint256",
          "name": "tokenId",
          "type": "uint256"
        }
      ],
      "name": "getApproved",
      "outputs": [
        {
          "internalType": "address",
          "name": "",
          "type": "address"
        }
      ],
      "stateMutability": "view",
      "type": "function"
    },
    {
      "inputs": [
        {
          "internalType": "address",
          "name": "",
          "type": "address"
        }
      ],
      "name": "hasMinted",
      "outputs": [
        {
          "internalType": "bool",
          "name": "",
          "type": "bool"
        }
      ],
      "stateMutability": "view",
      "type": "function"
    },
    {
      "inputs": [
        {
          "internalType": "address",
          "name": "owner",
          "type": "address"
        },
        {
          "internalType": "address",
          "name": "operator",
          "type": "address"
        }
      ],
      "name": "isApprovedForAll",
      "outputs": [
        {
          "internalType": "bool",
          "name": "",
          "type": "bool"
        }
      ],
      "stateMutability": "view",
      "type": "function"
    },
    {
      "inputs": [
        {
          "internalType": "bytes",
          "name": "signature",
          "type": "bytes"
        }
      ],
      "name": "mint",
      "outputs": [],
      "stateMutability": "nonpayable",
      "type": "function"
    },
    {
      "inputs": [],
      "name": "name",
      "outputs": [
        {
          "internalType": "string",
          "name": "",
          "type": "string"
        }
      ],
      "stateMutability": "view",
      "type": "function"
    },
    {
      "inputs": [],
      "name": "owner",
      "outputs": [
        {
          "internalType": "address",
          "name": "",
          "type": "address"
        }
      ],
      "stateMutability": "view",
      "type": "function"
    },
    {
      "inputs": [
        {
          "internalType": "uint256",
          "name": "tokenId",
          "type": "uint256"
        }
      ],
      "name": "ownerOf",
      "outputs": [
        {
          "internalType": "address",
          "name": "",
          "type": "address"
        }
      ],
      "stateMutability": "view",
      "type": "function"
    },
    {
      "inputs": [],
      "name": "renounceOwnership",
      "outputs": [],
      "stateMutability": "nonpayable",
      "type": "function"
    },
    {
      "inputs": [
        {
          "internalType": "address",
          "name": "from",
          "type": "address"
        },
        {
          "internalType": "address",
          "name": "to",
          "type": "address"
        },
        {
          "internalType": "uint256",
          "name": "tokenId",
          "type": "uint256"
        }
      ],
      "name": "safeTransferFrom",
      "outputs": [],
      "stateMutability": "nonpayable",
      "type": "function"
    },
    {
      "inputs": [
        {
          "internalType": "address",
          "name": "from",
          "type": "address"
        },
        {
          "internalType": "address",
          "name": "to",
          "type": "address"
        },
        {
          "internalType": "uint256",
          "name": "tokenId",
          "type": "uint256"
        },
        {
          "internalType": "bytes",
          "name": "data",
          "type": "bytes"
        }
      ],
      "name": "safeTransferFrom",
      "outputs": [],
      "stateMutability": "nonpayable",
      "type": "function"
    },
    {
      "inputs": [
        {
          "internalType": "address",
          "name": "operator",
          "type": "address"
        },
        {
          "internalType": "bool",
          "name": "approved",
          "type": "bool"
        }
      ],
      "name": "setApprovalForAll",
      "outputs": [],
      "stateMutability": "nonpayable",
      "type": "function"
    },
    {
      "inputs": [
        {
          "internalType": "string",
          "name": "newBaseTokenURI",
          "type": "string"
        }
      ],
      "name": "setBaseTokenURI",
      "outputs": [],
      "stateMutability": "nonpayable",
      "type": "function"
    },
    {
      "inputs": [
        {
          "internalType": "address",
          "name": "newSigner",
          "type": "address"
        }
      ],
      "name": "setEventSigner",
      "outputs": [],
      "stateMutability": "nonpayable",
      "type": "function"
    },
    {
      "inputs": [
        {
          "internalType": "bytes4",
          "name": "interfaceId",
          "type": "bytes4"
        }
      ],
      "name": "supportsInterface",
      "outputs": [
        {
          "internalType": "bool",
          "name": "",
          "type": "bool"
        }
      ],
      "stateMutability": "view",
      "type": "function"
    },
    {
      "inputs": [],
      "name": "symbol",
      "outputs": [
        {
          "internalType": "string",
          "name": "",
          "type": "string"
        }
      ],
      "stateMutability": "view",
      "type": "function"
    },
    {
      "inputs": [
        {
          "internalType": "uint256",
          "name": "tokenId",
          "type": "uint256"
        }
      ],
      "name": "tokenURI",
      "outputs": [
        {
          "internalType": "string",
          "name": "",
          "type": "string"
        }
      ],
      "stateMutability": "view",
      "type": "function"
    },
    {
      "inputs": [
        {
          "internalType": "address",
          "name": "from",
          "type": "address"
        },
        {
          "internalType": "address",
          "name": "to",
          "type": "address"
        },
        {
          "internalType": "uint256",
          "name": "tokenId",
          "type": "uint256"
        }
      ],
      "name": "transferFrom",
      "outputs": [],
      "stateMutability": "nonpayable",
      "type": "function"
    },
    {
      "inputs": [
        {
          "internalType": "address",
          "name": "newOwner",
          "type": "address"
        }
      ],
      "name": "transferOwnership",
      "outputs": [],
      "stateMutability": "nonpayable",
      "type": "function"
    }
  ],
  "bytecode": "0x608060405260016009553480156200001657600080fd5b50604051620035f1380380620035f183398181016040528101906200003c91906200047a565b8085858160009081620000509190620007aa565b508060019081620000629190620007aa565b505050600073ffffffffffffffffffffffffffffffffffffffff168173ffffffffffffffffffffffffffffffffffffffff1603620000da5760006040517f1e4fbdf7000000000000000000000000000000000000000000000000000000008152600401620000d19190620008a2565b60405180910390fd5b620000eb81620001bc60201b60201c565b50600073ffffffffffffffffffffffffffffffffffffffff168273ffffffffffffffffffffffffffffffffffffffff16036200015e576040517f08c379a0000000000000000000000000000000000000000000000000000000008152600401620001559062000920565b60405180910390fd5b81600760006101000a81548173ffffffffffffffffffffffffffffffffffffffff021916908373ffffffffffffffffffffffffffffffffffffffff1602179055508260089081620001b09190620007aa565b50505050505062000942565b6000600660009054906101000a900473ffffffffffffffffffffffffffffffffffffffff16905081600660006101000a81548173ffffffffffffffffffffffffffffffffffffffff021916908373ffffffffffffffffffffffffffffffffffffffff1602179055508173ffffffffffffffffffffffffffffffffffffffff168173ffffffffffffffffffffffffffffffffffffffff167f8be0079c531659141344cd1fd0a4f28419497f9722a3daafe3b4186f6b6457e060405160405180910390a35050565b6000604051905090565b600080fd5b600080fd5b600080fd5b600080fd5b6000601f19601f8301169050919050565b7f4e487b7100000000000000000000000000000000000000000000000000000000600052604160045260246000fd5b620002eb82620002a0565b810181811067ffffffffffffffff821117156200030d576200030c620002b1565b5b80604052505050565b60006200032262000282565b9050620003308282620002e0565b919050565b600067ffffffffffffffff821115620003535762000352620002b1565b5b6200035e82620002a0565b9050602081019050919050565b60005b838110156200038b5780820151818401526020810190506200036e565b60008484015250505050565b6000620003ae620003a88462000335565b62000316565b905082815260208101848484011115620003cd57620003cc6200029b565b5b620003da8482856200036b565b509392505050565b600082601f830112620003fa57620003f962000296565b5b81516200040c84826020860162000397565b91505092915050565b600073ffffffffffffffffffffffffffffffffffffffff82169050919050565b6000620004428262000415565b9050919050565b620004548162000435565b81146200046057600080fd5b50565b600081519050620004748162000449565b92915050565b600080600080600060a086880312156200049957620004986200028c565b5b600086015167ffffffffffffffff811115620004ba57620004b962000291565b5b620004c888828901620003e2565b955050602086015167ffffffffffffffff811115620004ec57620004eb62000291565b5b620004fa88828901620003e2565b945050604086015167ffffffffffffffff8111156200051e576200051d62000291565b5b6200052c88828901620003e2565b93505060606200053f8882890162000463565b9250506080620005528882890162000463565b9150509295509295909350565b600081519050919050565b7f4e487b7100000000000000000000000000000000000000000000000000000000600052602260045260246000fd5b60006002820490506001821680620005b257607f821691505b602082108103620005c857620005c76200056a565b5b50919050565b60008190508160005260206000209050919050565b60006020601f8301049050919050565b600082821b905092915050565b600060088302620006327fffffffffffffffffffffffffffffffffffffffffffffffffffffffffffffffff82620005f3565b6200063e8683620005f3565b95508019841693508086168417925050509392505050565b6000819050919050565b6000819050919050565b60006200068b620006856200067f8462000656565b62000660565b62000656565b9050919050565b6000819050919050565b620006a7836200066a565b620006bf620006b68262000692565b84845462000600565b825550505050565b600090565b620006d6620006c7565b620006e38184846200069c565b505050565b5b818110156200070b57620006ff600082620006cc565b600181019050620006e9565b5050565b601f8211156200075a576200072481620005ce565b6200072f84620005e3565b810160208510156200073f578190505b620007576200074e85620005e3565b830182620006e8565b50505b505050565b600082821c905092915050565b60006200077f600019846008026200075f565b1980831691505092915050565b60006200079a83836200076c565b9150826002028217905092915050565b620007b5826200055f565b67ffffffffffffffff811115620007d157620007d0620002b1565b5b620007dd825462000599565b620007ea8282856200070f565b600060209050601f8311600181146200082257600084156200080d578287015190505b6200081985826200078c565b86555062000889565b601f1984166200083286620005ce565b60005b828110156200085c5784890151825560018201915060208501945060208101905062000835565b868310156200087c578489015162000878601f8916826200076c565b8355505b6001600288020188555050505b505050505050565b6200089c8162000435565b82525050565b6000602082019050620008b9600083018462000891565b92915050565b600082825260208201905092915050565b7f696e76616c6964207369676e6572000000000000000000000000000000000000600082015250565b600062000908600e83620008bf565b91506200091582620008d0565b602082019050919050565b600060208201905081810360008301526200093b81620008f9565b9050919050565b612c9f80620009526000396000f3fe608060405234801561001057600080fd5b50600436106101375760003560e01c8063715018a6116100b8578063b88d4fde1161007c578063b88d4fde14610338578063c87b56dd14610354578063d5dbcd8914610384578063e985e9c5146103a0578063f25f1f6a146103d0578063f2fde38b146103ee57610137565b8063715018a6146102ba5780637ba0e2e7146102c45780638da5cb5b146102e057806395d89b41146102fe578063a22cb4651461031c57610137565b806330176e13116100ff57806330176e13146101f257806338e21cce1461020e57806342842e0e1461023e5780636352211e1461025a57806370a082311461028a57610137565b806301ffc9a71461013c57806306fdde031461016c578063081812fc1461018a578063095ea7b3146101ba57806323b872dd146101d6575b600080fd5b61015660048036038101906101519190611e90565b61040a565b6040516101639190611ed8565b60405180910390f35b6101746104ec565b6040516101819190611f83565b60405180910390f35b6101a4600480360381019061019f9190611fdb565b61057e565b6040516101b19190612049565b60405180910390f35b6101d460048036038101906101cf9190612090565b61059a565b005b6101f060048036038101906101eb91906120d0565b6105b0565b005b61020c60048036038101906102079190612188565b6106b2565b005b610228600480360381019061022391906121d5565b6106d0565b6040516102359190611ed8565b60405180910390f35b610258600480360381019061025391906120d0565b6106f0565b005b610274600480360381019061026f9190611fdb565b610710565b6040516102819190612049565b60405180910390f35b6102a4600480360381019061029f91906121d5565b610722565b6040516102b19190612211565b60405180910390f35b6102c26107dc565b005b6102de60048036038101906102d99190612282565b6107f0565b005b6102e8610a6a565b6040516102f59190612049565b60405180910390f35b610306610a94565b6040516103139190611f83565b60405180910390f35b610336600480360381019061033191906122fb565b610b26565b005b610352600480360381019061034d919061246b565b610b3c565b005b61036e60048036038101906103699190611fdb565b610b61565b60405161037b9190611f83565b60405180910390f35b61039e600480360381019061039991906121d5565b610bff565b005b6103ba60048036038101906103b591906124ee565b610d3c565b6040516103c79190611ed8565b60405180910390f35b6103d8610dd0565b6040516103e59190612049565b60405180910390f35b610408600480360381019061040391906121d5565b610df6565b005b60007f80ac58cd000000000000000000000000000000000000000000000000000000007bffffffffffffffffffffffffffffffffffffffffffffffffffffffff1916827bffffffffffffffffffffffffffffffffffffffffffffffffffffffff191614806104d557507f5b5e139f000000000000000000000000000000000000000000000000000000007bffffffffffffffffffffffffffffffffffffffffffffffffffffffff1916827bffffffffffffffffffffffffffffffffffffffffffffffffffffffff1916145b806104e557506104e482610e7c565b5b9050919050565b6060600080546104fb9061255d565b80601f01602080910402602001604051908101604052809291908181526020018280546105279061255d565b80156105745780601f1061054957610100808354040283529160200191610574565b820191906000526020600020905b81548152906001019060200180831161055757829003601f168201915b5050505050905090565b600061058982610ee6565b5061059382610f6e565b9050919050565b6105ac82826105a7610fab565b610fb3565b5050565b600073ffffffffffffffffffffffffffffffffffffffff168273ffffffffffffffffffffffffffffffffffffffff16036106225760006040517f64a0ae920000000000000000000000000000000000000000000000000000000081526004016106199190612049565b60405180910390fd5b60006106368383610631610fab565b610fc5565b90508373ffffffffffffffffffffffffffffffffffffffff168173ffffffffffffffffffffffffffffffffffffffff16146106ac578382826040517f64283d7b0000000000000000000000000000000000000000000000000000000081526004016106a39392919061258e565b60405180910390fd5b50505050565b6106ba6111df565b8181600891826106cb92919061277c565b505050565b600a6020528060005260406000206000915054906101000a900460ff1681565b61070b83838360405180602001604052806000815250610b3c565b505050565b600061071b82610ee6565b9050919050565b60008073ffffffffffffffffffffffffffffffffffffffff168273ffffffffffffffffffffffffffffffffffffffff16036107955760006040517f89c62b6400000000000000000000000000000000000000000000000000000000815260040161078c9190612049565b60405180910390fd5b600360008373ffffffffffffffffffffffffffffffffffffffff1673ffffffffffffffffffffffffffffffffffffffff168152602001908152602001600020549050919050565b6107e46111df565b6107ee6000611266565b565b600a60003373ffffffffffffffffffffffffffffffffffffffff1673ffffffffffffffffffffffffffffffffffffffff16815260200190815260200160002060009054906101000a900460ff161561087d576040517f08c379a000000000000000000000000000000000000000000000000000000000815260040161087490612898565b60405180910390fd5b600030463360405160200161089493929190612921565b60405160208183030381529060405280519060200120905060006108b78261132c565b905060006109098286868080601f016020809104026020016040519081016040528093929190818152602001838380828437600081840152601f19601f82011690508083019250505050505050611362565b9050600760009054906101000a900473ffffffffffffffffffffffffffffffffffffffff1673ffffffffffffffffffffffffffffffffffffffff168173ffffffffffffffffffffffffffffffffffffffff161461099b576040517f08c379a0000000000000000000000000000000000000000000000000000000008152600401610992906129aa565b60405180910390fd5b600060095490506001600960008282546109b591906129f9565b925050819055506001600a60003373ffffffffffffffffffffffffffffffffffffffff1673ffffffffffffffffffffffffffffffffffffffff16815260200190815260200160002060006101000a81548160ff021916908315150217905550610a1e338261138e565b803373ffffffffffffffffffffffffffffffffffffffff167f958d3c2b9a1f45db06c98bb088e9429edf39bf78088672a59bb8ffb7a3f2f27760405160405180910390a3505050505050565b6000600660009054906101000a900473ffffffffffffffffffffffffffffffffffffffff16905090565b606060018054610aa39061255d565b80601f0160208091040260200160405190810160405280929190818152602001828054610acf9061255d565b8015610b1c5780601f10610af157610100808354040283529160200191610b1c565b820191906000526020600020905b815481529060010190602001808311610aff57829003601f168201915b5050505050905090565b610b38610b31610fab565b83836113ac565b5050565b610b478484846105b0565b610b5b610b52610fab565b8585858561151b565b50505050565b6060610b6c82610ee6565b5060088054610b7a9061255d565b80601f0160208091040260200160405190810160405280929190818152602001828054610ba69061255d565b8015610bf35780601f10610bc857610100808354040283529160200191610bf3565b820191906000526020600020905b815481529060010190602001808311610bd657829003601f168201915b50505050509050919050565b610c076111df565b600073ffffffffffffffffffffffffffffffffffffffff168173ffffffffffffffffffffffffffffffffffffffff1603610c76576040517f08c379a0000000000000000000000000000000000000000000000000000000008152600401610c6d90612a79565b60405180910390fd5b6000600760009054906101000a900473ffffffffffffffffffffffffffffffffffffffff16905081600760006101000a81548173ffffffffffffffffffffffffffffffffffffffff021916908373ffffffffffffffffffffffffffffffffffffffff1602179055508173ffffffffffffffffffffffffffffffffffffffff168173ffffffffffffffffffffffffffffffffffffffff167f5d2c7187e34b81b47717c10dc83cf99cbd022889c871bfbb820c85bce167b88160405160405180910390a35050565b6000600560008473ffffffffffffffffffffffffffffffffffffffff1673ffffffffffffffffffffffffffffffffffffffff16815260200190815260200160002060008373ffffffffffffffffffffffffffffffffffffffff1673ffffffffffffffffffffffffffffffffffffffff16815260200190815260200160002060009054906101000a900460ff16905092915050565b600760009054906101000a900473ffffffffffffffffffffffffffffffffffffffff1681565b610dfe6111df565b600073ffffffffffffffffffffffffffffffffffffffff168173ffffffffffffffffffffffffffffffffffffffff1603610e705760006040517f1e4fbdf7000000000000000000000000000000000000000000000000000000008152600401610e679190612049565b60405180910390fd5b610e7981611266565b50565b60007f01ffc9a7000000000000000000000000000000000000000000000000000000007bffffffffffffffffffffffffffffffffffffffffffffffffffffffff1916827bffffffffffffffffffffffffffffffffffffffffffffffffffffffff1916149050919050565b600080610ef2836116cc565b9050600073ffffffffffffffffffffffffffffffffffffffff168173ffffffffffffffffffffffffffffffffffffffff1603610f6557826040517f7e273289000000000000000000000000000000000000000000000000000000008152600401610f5c9190612211565b60405180910390fd5b80915050919050565b60006004600083815260200190815260200160002060009054906101000a900473ffffffffffffffffffffffffffffffffffffffff169050919050565b600033905090565b610fc08383836001611709565b505050565b600080610fd1846116cc565b9050600073ffffffffffffffffffffffffffffffffffffffff168373ffffffffffffffffffffffffffffffffffffffff1614611013576110128184866118ce565b5b600073ffffffffffffffffffffffffffffffffffffffff168173ffffffffffffffffffffffffffffffffffffffff16146110a457611055600085600080611709565b6001600360008373ffffffffffffffffffffffffffffffffffffffff1673ffffffffffffffffffffffffffffffffffffffff168152602001908152602001600020600082825403925050819055505b600073ffffffffffffffffffffffffffffffffffffffff168573ffffffffffffffffffffffffffffffffffffffff1614611127576001600360008773ffffffffffffffffffffffffffffffffffffffff1673ffffffffffffffffffffffffffffffffffffffff168152602001908152602001600020600082825401925050819055505b846002600086815260200190815260200160002060006101000a81548173ffffffffffffffffffffffffffffffffffffffff021916908373ffffffffffffffffffffffffffffffffffffffff160217905550838573ffffffffffffffffffffffffffffffffffffffff168273ffffffffffffffffffffffffffffffffffffffff167fddf252ad1be2c89b69c2b068fc378daa952ba7f163c4a11628f55a4df523b3ef60405160405180910390a4809150509392505050565b6111e7610fab565b73ffffffffffffffffffffffffffffffffffffffff16611205610a6a565b73ffffffffffffffffffffffffffffffffffffffff161461126457611228610fab565b6040517f118cdaa700000000000000000000000000000000000000000000000000000000815260040161125b9190612049565b60405180910390fd5b565b6000600660009054906101000a900473ffffffffffffffffffffffffffffffffffffffff16905081600660006101000a81548173ffffffffffffffffffffffffffffffffffffffff021916908373ffffffffffffffffffffffffffffffffffffffff1602179055508173ffffffffffffffffffffffffffffffffffffffff168173ffffffffffffffffffffffffffffffffffffffff167f8be0079c531659141344cd1fd0a4f28419497f9722a3daafe3b4186f6b6457e060405160405180910390a35050565b60007f19457468657265756d205369676e6564204d6573736167653a0a33320000000060005281601c52603c6000209050919050565b6000806000806113728686611992565b92509250925061138282826119ee565b82935050505092915050565b6113a8828260405180602001604052806000815250611b52565b5050565b600073ffffffffffffffffffffffffffffffffffffffff168273ffffffffffffffffffffffffffffffffffffffff160361141d57816040517f5b08ba180000000000000000000000000000000000000000000000000000000081526004016114149190612049565b60405180910390fd5b80600560008573ffffffffffffffffffffffffffffffffffffffff1673ffffffffffffffffffffffffffffffffffffffff16815260200190815260200160002060008473ffffffffffffffffffffffffffffffffffffffff1673ffffffffffffffffffffffffffffffffffffffff16815260200190815260200160002060006101000a81548160ff0219169083151502179055508173ffffffffffffffffffffffffffffffffffffffff168373ffffffffffffffffffffffffffffffffffffffff167f17307eab39ab6107e8899845ad3d59bd9653f200f220920489ca2b5937696c318360405161150e9190611ed8565b60405180910390a3505050565b60008373ffffffffffffffffffffffffffffffffffffffff163b11156116c5578273ffffffffffffffffffffffffffffffffffffffff1663150b7a02868685856040518563ffffffff1660e01b815260040161157a9493929190612aee565b6020604051808303816000875af19250505080156115b657506040513d601f19601f820116820180604052508101906115b39190612b4f565b60015b61163a573d80600081146115e6576040519150601f19603f3d011682016040523d82523d6000602084013e6115eb565b606091505b50600081510361163257836040517f64a0ae920000000000000000000000000000000000000000000000000000000081526004016116299190612049565b60405180910390fd5b805160208201fd5b63150b7a0260e01b7bffffffffffffffffffffffffffffffffffffffffffffffffffffffff1916817bffffffffffffffffffffffffffffffffffffffffffffffffffffffff1916146116c357836040517f64a0ae920000000000000000000000000000000000000000000000000000000081526004016116ba9190612049565b60405180910390fd5b505b5050505050565b60006002600083815260200190815260200160002060009054906101000a900473ffffffffffffffffffffffffffffffffffffffff169050919050565b80806117425750600073ffffffffffffffffffffffffffffffffffffffff168273ffffffffffffffffffffffffffffffffffffffff1614155b1561187657600061175284610ee6565b9050600073ffffffffffffffffffffffffffffffffffffffff168373ffffffffffffffffffffffffffffffffffffffff16141580156117bd57508273ffffffffffffffffffffffffffffffffffffffff168173ffffffffffffffffffffffffffffffffffffffff1614155b80156117d057506117ce8184610d3c565b155b1561181257826040517fa9fbf51f0000000000000000000000000000000000000000000000000000000081526004016118099190612049565b60405180910390fd5b811561187457838573ffffffffffffffffffffffffffffffffffffffff168273ffffffffffffffffffffffffffffffffffffffff167f8c5be1e5ebec7d5bd14f71427d1e84f3dd0314c0f7b2291e5b200ac8c7c3b92560405160405180910390a45b505b836004600085815260200190815260200160002060006101000a81548173ffffffffffffffffffffffffffffffffffffffff021916908373ffffffffffffffffffffffffffffffffffffffff16021790555050505050565b6118d9838383611b76565b61198d57600073ffffffffffffffffffffffffffffffffffffffff168373ffffffffffffffffffffffffffffffffffffffff160361194e57806040517f7e2732890000000000000000000000000000000000000000000000000000000081526004016119459190612211565b60405180910390fd5b81816040517f177e802f000000000000000000000000000000000000000000000000000000008152600401611984929190612b7c565b60405180910390fd5b505050565b600080600060418451036119d75760008060006020870151925060408701519150606087015160001a90506119c988828585611c37565b9550955095505050506119e7565b60006002855160001b9250925092505b9250925092565b60006003811115611a0257611a01612ba5565b5b826003811115611a1557611a14612ba5565b5b0315611b4e5760016003811115611a2f57611a2e612ba5565b5b826003811115611a4257611a41612ba5565b5b03611a79576040517ff645eedf00000000000000000000000000000000000000000000000000000000815260040160405180910390fd5b60026003811115611a8d57611a8c612ba5565b5b826003811115611aa057611a9f612ba5565b5b03611ae5578060001c6040517ffce698f7000000000000000000000000000000000000000000000000000000008152600401611adc9190612211565b60405180910390fd5b600380811115611af857611af7612ba5565b5b826003811115611b0b57611b0a612ba5565b5b03611b4d57806040517fd78bce0c000000000000000000000000000000000000000000000000000000008152600401611b449190612bed565b60405180910390fd5b5b5050565b611b5c8383611d2b565b611b71611b67610fab565b600085858561151b565b505050565b60008073ffffffffffffffffffffffffffffffffffffffff168373ffffffffffffffffffffffffffffffffffffffff1614158015611c2e57508273ffffffffffffffffffffffffffffffffffffffff168473ffffffffffffffffffffffffffffffffffffffff161480611bef5750611bee8484610d3c565b5b80611c2d57508273ffffffffffffffffffffffffffffffffffffffff16611c1583610f6e565b73ffffffffffffffffffffffffffffffffffffffff16145b5b90509392505050565b60008060007f7fffffffffffffffffffffffffffffff5d576e7357a4501ddfe92f46681b20a08460001c1115611c77576000600385925092509250611d21565b600060018888888860405160008152602001604052604051611c9c9493929190612c24565b6020604051602081039080840390855afa158015611cbe573d6000803e3d6000fd5b505050602060405103519050600073ffffffffffffffffffffffffffffffffffffffff168173ffffffffffffffffffffffffffffffffffffffff1603611d1257600060016000801b93509350935050611d21565b8060008060001b935093509350505b9450945094915050565b600073ffffffffffffffffffffffffffffffffffffffff168273ffffffffffffffffffffffffffffffffffffffff1603611d9d5760006040517f64a0ae92000000000000000000000000000000000000000000000000000000008152600401611d949190612049565b60405180910390fd5b6000611dab83836000610fc5565b9050600073ffffffffffffffffffffffffffffffffffffffff168173ffffffffffffffffffffffffffffffffffffffff1614611e1f5760006040517f73c6ac6e000000000000000000000000000000000000000000000000000000008152600401611e169190612049565b60405180910390fd5b505050565b6000604051905090565b600080fd5b600080fd5b60007fffffffff0000000000000000000000000000000000000000000000000000000082169050919050565b611e6d81611e38565b8114611e7857600080fd5b50565b600081359050611e8a81611e64565b92915050565b600060208284031215611ea657611ea5611e2e565b5b6000611eb484828501611e7b565b91505092915050565b60008115159050919050565b611ed281611ebd565b82525050565b6000602082019050611eed6000830184611ec9565b92915050565b600081519050919050565b600082825260208201905092915050565b60005b83811015611f2d578082015181840152602081019050611f12565b60008484015250505050565b6000601f19601f8301169050919050565b6000611f5582611ef3565b611f5f8185611efe565b9350611f6f818560208601611f0f565b611f7881611f39565b840191505092915050565b60006020820190508181036000830152611f9d8184611f4a565b905092915050565b6000819050919050565b611fb881611fa5565b8114611fc357600080fd5b50565b600081359050611fd581611faf565b92915050565b600060208284031215611ff157611ff0611e2e565b5b6000611fff84828501611fc6565b91505092915050565b600073ffffffffffffffffffffffffffffffffffffffff82169050919050565b600061203382612008565b9050919050565b61204381612028565b82525050565b600060208201905061205e600083018461203a565b92915050565b61206d81612028565b811461207857600080fd5b50565b60008135905061208a81612064565b92915050565b600080604083850312156120a7576120a6611e2e565b5b60006120b58582860161207b565b92505060206120c685828601611fc6565b9150509250929050565b6000806000606084860312156120e9576120e8611e2e565b5b60006120f78682870161207b565b93505060206121088682870161207b565b925050604061211986828701611fc6565b9150509250925092565b600080fd5b600080fd5b600080fd5b60008083601f84011261214857612147612123565b5b8235905067ffffffffffffffff81111561216557612164612128565b5b6020830191508360018202830111156121815761218061212d565b5b9250929050565b6000806020838503121561219f5761219e611e2e565b5b600083013567ffffffffffffffff8111156121bd576121bc611e33565b5b6121c985828601612132565b92509250509250929050565b6000602082840312156121eb576121ea611e2e565b5b60006121f98482850161207b565b91505092915050565b61220b81611fa5565b82525050565b60006020820190506122266000830184612202565b92915050565b60008083601f84011261224257612241612123565b5b8235905067ffffffffffffffff81111561225f5761225e612128565b5b60208301915083600182028301111561227b5761227a61212d565b5b9250929050565b6000806020838503121561229957612298611e2e565b5b600083013567ffffffffffffffff8111156122b7576122b6611e33565b5b6122c38582860161222c565b92509250509250929050565b6122d881611ebd565b81146122e357600080fd5b50565b6000813590506122f5816122cf565b92915050565b6000806040838503121561231257612311611e2e565b5b60006123208582860161207b565b9250506020612331858286016122e6565b9150509250929050565b600080fd5b7f4e487b7100000000000000000000000000000000000000000000000000000000600052604160045260246000fd5b61237882611f39565b810181811067ffffffffffffffff8211171561239757612396612340565b5b80604052505050565b60006123aa611e24565b90506123b6828261236f565b919050565b600067ffffffffffffffff8211156123d6576123d5612340565b5b6123df82611f39565b9050602081019050919050565b82818337600083830152505050565b600061240e612409846123bb565b6123a0565b90508281526020810184848401111561242a5761242961233b565b5b6124358482856123ec565b509392505050565b600082601f83011261245257612451612123565b5b81356124628482602086016123fb565b91505092915050565b6000806000806080858703121561248557612484611e2e565b5b60006124938782880161207b565b94505060206124a48782880161207b565b93505060406124b587828801611fc6565b925050606085013567ffffffffffffffff8111156124d6576124d5611e33565b5b6124e28782880161243d565b91505092959194509250565b6000806040838503121561250557612504611e2e565b5b60006125138582860161207b565b92505060206125248582860161207b565b9150509250929050565b7f4e487b7100000000000000000000000000000000000000000000000000000000600052602260045260246000fd5b6000600282049050600182168061257557607f821691505b6020821081036125885761258761252e565b5b50919050565b60006060820190506125a3600083018661203a565b6125b06020830185612202565b6125bd604083018461203a565b949350505050565b600082905092915050565b60008190508160005260206000209050919050565b60006020601f8301049050919050565b600082821b905092915050565b6000600883026126327fffffffffffffffffffffffffffffffffffffffffffffffffffffffffffffffff826125f5565b61263c86836125f5565b95508019841693508086168417925050509392505050565b6000819050919050565b600061267961267461266f84611fa5565b612654565b611fa5565b9050919050565b6000819050919050565b6126938361265e565b6126a761269f82612680565b848454612602565b825550505050565b600090565b6126bc6126af565b6126c781848461268a565b505050565b5b818110156126eb576126e06000826126b4565b6001810190506126cd565b5050565b601f82111561273057612701816125d0565b61270a846125e5565b81016020851015612719578190505b61272d612725856125e5565b8301826126cc565b50505b505050565b600082821c905092915050565b600061275360001984600802612735565b1980831691505092915050565b600061276c8383612742565b9150826002028217905092915050565b61278683836125c5565b67ffffffffffffffff81111561279f5761279e612340565b5b6127a9825461255d565b6127b48282856126ef565b6000601f8311600181146127e357600084156127d1578287013590505b6127db8582612760565b865550612843565b601f1984166127f1866125d0565b60005b82811015612819578489013582556001820191506020850194506020810190506127f4565b868310156128365784890135612832601f891682612742565b8355505b6001600288020188555050505b50505050505050565b7f616c7265616479206d696e746564000000000000000000000000000000000000600082015250565b6000612882600e83611efe565b915061288d8261284c565b602082019050919050565b600060208201905081810360008301526128b181612875565b9050919050565b60008160601b9050919050565b60006128d0826128b8565b9050919050565b60006128e2826128c5565b9050919050565b6128fa6128f582612028565b6128d7565b82525050565b6000819050919050565b61291b61291682611fa5565b612900565b82525050565b600061292d82866128e9565b60148201915061293d828561290a565b60208201915061294d82846128e9565b601482019150819050949350505050565b7f696e76616c6964206576656e74207369676e6174757265000000000000000000600082015250565b6000612994601783611efe565b915061299f8261295e565b602082019050919050565b600060208201905081810360008301526129c381612987565b9050919050565b7f4e487b7100000000000000000000000000000000000000000000000000000000600052601160045260246000fd5b6000612a0482611fa5565b9150612a0f83611fa5565b9250828201905080821115612a2757612a266129ca565b5b92915050565b7f696e76616c6964207369676e6572000000000000000000000000000000000000600082015250565b6000612a63600e83611efe565b9150612a6e82612a2d565b602082019050919050565b60006020820190508181036000830152612a9281612a56565b9050919050565b600081519050919050565b600082825260208201905092915050565b6000612ac082612a99565b612aca8185612aa4565b9350612ada818560208601611f0f565b612ae381611f39565b840191505092915050565b6000608082019050612b03600083018761203a565b612b10602083018661203a565b612b1d6040830185612202565b8181036060830152612b2f8184612ab5565b905095945050505050565b600081519050612b4981611e64565b92915050565b600060208284031215612b6557612b64611e2e565b5b6000612b7384828501612b3a565b91505092915050565b6000604082019050612b91600083018561203a565b612b9e6020830184612202565b9392505050565b7f4e487b7100000000000000000000000000000000000000000000000000000000600052602160045260246000fd5b6000819050919050565b612be781612bd4565b82525050565b6000602082019050612c026000830184612bde565b92915050565b600060ff82169050919050565b612c1e81612c08565b82525050565b6000608082019050612c396000830187612bde565b612c466020830186612c15565b612c536040830185612bde565b612c606060830184612bde565b9594505050505056fea2646970667358221220bdaae819c4e997c353cc82496d630255b169d28d16250d50a66ae2c8d18957a964736f6c63430008180033",
  "linkReferences": {},
  "deployedLinkReferences": {}
}